:020000040000FA
:060000000A128A110C280F
:10000800FE00030EF3000A08F4000A128A112528DC
:100018000A128A110F280A128A110C210A128A114F
:10002800A6000A128A110D210A128A11A700A4013A
:10003800A501F501F601F701F80183010A128A11F9
:10004800ED28831203138C1D2A282B284E280A1208
:100058008A11F6200A128A11F100F201710883123E
:100068000313A6007208A70026032704031D3D28D2
:100078003E28452877080A128A1106210A128A1191
:100088004B2824080A128A1106210A128A1183129F
:1000980003138C110C1F5128522880280130F507B2
:1000A8000318F60A0030F607751C5B285C286B28D5
:1000B80000300A128A11C8200A128A118312031307
:1000C8001E08F100F2017108F7007208F8007518AF
:1000D8006E286F287E2803300A128A11C8200A1257
:1000E8008A11831203131E08F100F2017108A4009B
:1000F8007208A5009F140C1374088A00730E8300FD
:10010800FE0E7E0E0900FF30831603178800890152
:10011800831603138601FF3085008B170B17831294
:1001280003138C11831603138C150A128A11E1200C
:100138000A128A1183120313A001A101A20124301B
:100148000A128A11AA200A128A11080083120313BC
:10015800A30083160313871283120313231DB528E4
:10016800B628BC2822088316031394008715C228D2
:1001780020082204831603139400871183120313A3
:100188002308210494000800F0007008031DCD28FE
:10019800CE28D428831203131F119F111F129F12F8
:1001A80003307006031DD928DA28E02883120313C8
:1001B8001F159F151F129F120800831203131F1784
:1001C8009F131F149F14831603139F131F129F124C
:1001D80008000A128A1187200A128A11F2280A12C4
:1001E8008A110C280A128A11FF200A128A11831216
:1001F80003131308080083160313141C0429052984
:10020800FF280800F0007008831203139300080009
:040218000134003479
:04400E00D4E0FFFFFC
:00000001FF
