:020000040000FA
:100000000A128A110C280134FE00030EF3000A08BC
:10001000F4000A128A15BE290A128A110F280A1240
:100020008A1103200A128A11EC000A128A11FF2792
:100030000A128A11F8008313A0308400B8300A1223
:100040008A11F7270A128A11623084006C300A1272
:100050008A11F7270A128A11F70183010A128A15F9
:10006000EA2D8312031331088039B6003608BB002D
:100070003108B6003607B7003708C100B01F412865
:100080004228432841144108031947284828572883
:10009000410A031D4C284D2855280030B10000307E
:1000A000B0000030AF000030AE00B0175F28003065
:1000B000B1000030B0000030AF000030AE003508B5
:1000C0008039B6003608BB063508B6003607B700DB
:1000D0003708BC00B41F6D286E286F283C143C08FC
:1000E00003197328742883283C0A031D782879286B
:1000F00081280030B5000030B4000030B30000307B
:10010000B200B4178B280030B5000030B4000030C6
:10011000B3000030B2003C0803198F2890289528BE
:100120004108031D942895289E280030B100003016
:10013000B0000030AF000030AE00912B2E08B600AA
:100140003608F50034080A128A15A5200A128A1109
:10015000760883120313C7007508C6004608B60068
:10016000B701B801B9013908C0003808BF00370825
:10017000BE003608BD004708B600B701B801B90196
:100180003908C5003808C4003708C3003608C20063
:100190002F08B6003608F50033080A128A15A52084
:1001A0000A128A11760883120313C7007508C60065
:1001B0004608B600B701B801B9013608BD073708CF
:1001C00003110318013E0319E628BE07380803117E
:1001D0000318013E0319ED28BF073908031103185E
:1001E000013E0319F428C0074708B600B701B8015B
:1001F000B9013608C207370803110318013E031975
:100200000229C307380803110318013E03190929FD
:10021000C407390803110318013E03191029C50743
:100220003008B6003608F50032080A128A15A520F3
:100230000A128A11760883120313C7007508C600D4
:100240004608B600B701B801B9013608BD0737083E
:1002500003110318013E03192E29BE0738080311A4
:100260000318013E03193529BF0739080311031884
:10027000013E03193C29C0074708B600B701B80181
:10028000B9013608C207370803110318013E0319E4
:100290004A29C307380803110318013E03195129DD
:1002A000C407390803110318013E03195829C5076B
:1002B0000830B6000310BD0DBE0DBF0DC00DB60B4E
:1002C0005A292F08B6003608F50032080A128A1596
:1002D000A5200A128A11760883120313C700750835
:1002E000C6004608B6004708B700B801B90136088D
:1002F000BD07370803110318013E03198029BE0703
:10030000380803110318013E03198729BF0739086C
:1003100003110318013E03198E29C0072E08B600E9
:100320003608F50033080A128A15A5200A128A1128
:10033000760883120313C7007508C6004608B60086
:100340004708B700B801B9013608BD0737080311DF
:100350000318013E0319AD29BE073808031103181D
:10036000013E0319B429BF07390803110318013EE0
:100370000319BB29C0070830B6000310BD0DBE0D20
:10038000BF0DC00DB60BBD292E08B6003608F5000E
:1003900032080A128A15A5200A128A1176088312D9
:1003A0000313C7007508C6004608B6004708B70023
:1003B000B801B9013608BD07370803110318013E1B
:1003C0000319E329BE07380803110318013E031976
:1003D000EA29BF07390803110318013E0319F1295F
:1003E000C0072F08B6003608F50034080A128A152F
:1003F000A5200A128A11760883120313C700750814
:10040000C6004608B6004708B700B801B90136086B
:10041000C207370803110318013E0319102AC30746
:10042000380803110318013E0319172AC4073908B5
:1004300003110318013E03191E2AC5073008B60030
:100440003608F50033080A128A15A5200A128A1107
:10045000760883120313C7007508C6004608B60065
:100460004708B700B801B9013608C20737080311B9
:100470000318013E03193D2AC30738080311031866
:10048000013E0319442AC407390803110318013E29
:1004900003194B2AC5073008B6003608F5003408A2
:1004A0000A128A15A5200A128A11760883120313EC
:1004B000C7007508C6004608B6004708B700B8016F
:1004C000B90108300310B60DB70DB80DB90DFF3ED8
:1004D000031D622A3608C207370803110318013EBC
:1004E0000319732AC307380803110318013E0319BF
:1004F0007A2AC407390803110318013E0319812A17
:10050000C5073D08B6003E08B7003F08B8004008E0
:10051000B90018300310B90CB80CB70CB60CFF3E7C
:10052000031D8A2A3608C207370803110318013E43
:1005300003199B2AC307380803110318013E031946
:10054000A22AC407390803110318013E0319A92A76
:10055000C5070830B6000310BD0DBE0DBF0DC00DA0
:10056000B60BAB2A41083C07B600B701B70D3608F9
:10057000823EC60037080318013EFF3EC700DD2A51
:100580000130B6000310C20DC30DC40DC50DB60B6E
:10059000C22AC01FCC2ACD2ACE2A42140130B6006E
:1005A0000310BD0DBE0DBF0DC00DB60BD02AFF3020
:1005B000C6070318C70AFF30C707C41FE02AE12A8D
:1005C000C02ABC01C01FE52AE62A022BFF303D05E8
:1005D000B600FF303E05B700FF303F05B8007F3062
:1005E0004005B90039083804370436040319F92ADC
:1005F000FA2AFD2ABC01BC0A022B421C002B012B4B
:10060000022BFA2A3C080319062B072B382B013042
:10061000C207003003180130C3070030031801304F
:10062000C407003003180130C507451C182B192BCF
:10063000382B4208B6004308B7004408B800450804
:10064000B9000130BA00390DB90CB80CB70CB60CB2
:10065000BA0B232B3908C5003808C4003708C3007B
:100660003608C2000130C6070318C70A0030C707A2
:100670004708803AFF0080307F02031D412BFF3086
:100680004602031C442B452B502B7F30831203134F
:10069000C5008030C4000030C3000030C200852B8C
:1006A000831203134708803AFF0080307F02031D46
:1006B0005B2B0130460203185E2B5F2B6B2B003047
:1006C00083120313C5000030C4000030C3000030A3
:1006D000C200BB01852B831203134608B6003608FF
:1006E000C100FF30C205FF30C3057F30C4050030B4
:1006F000C505411C7C2B7D2B7E2BC4174108B60001
:100700000310360CB7003708C5003B08B6003608A2
:10071000C5044508B1004408B0004308AF004208D2
:10072000AE0008008312031323088039A8002808AC
:10073000B0002308A8002807A9002908B200A21FBA
:10074000A22BA32BA42B321432080319A82BA92BFC
:10075000B92B320A031DAD2BAE2BB62B0030A300F4
:100760000030A2000030A1000030A000A217A301B9
:10077000C12B0030A3000030A2000030A1000030E7
:10078000A00027088039A8002808B10031083006E9
:100790000319CB2BCC2BCD2B30172708A80028070B
:1007A000A9002908B100A61FD62BD72BD82B3114AE
:1007B00031080319DC2BDD2BED2B310A031DE12B56
:1007C000E22BEA2B0030A7000030A6000030A50085
:1007D0000030A400A617A701F52B0030A7000030B9
:1007E000A6000030A5000030A40032083102031832
:1007F000FA2BFB2B3F2C301FFE2BFF2B032C8030C2
:10080000A8002808B0063208A8002808B30031085C
:10081000A8002808B2003308A8002808B100200862
:10082000A8002808B3002408A8002808A00033085E
:10083000A8002808A4002108A8002808B30025085B
:10084000A8002808A1003308A8002808A50022084D
:10085000A8002808B3002608A8002808A20033082A
:10086000A8002808A6002308A8002808B300270825
:10087000A8002808A3003308A8002808A700B3018F
:100880003108A800A9012908AB0032082802AA00F3
:10089000031CAB032B08803AFF0080307F02031D4E
:1008A000532C1A302A02031C562C572C942C8312DA
:1008B00003132308220421042004031D602C622C4E
:1008C0000130632C0030A8002808B3000030A300DA
:1008D0000030A2000030A1000030A0003108A800C4
:1008E0002808B2009C2C331C762C772C802C3308E3
:1008F000A8000310280C0138A9002908B300822C95
:100900000310B30C201C852C862C872CB3170130C8
:10091000A800230DA30CA20CA10CA00CA80B892CE1
:100920000130A8002808B2078312031331083202ED
:10093000031C9B2C9C2C732C301B9F2CA02CEB2C71
:100940003208031DA42CA52CAE2C0030A3000030CF
:10095000A2000030A1000030A000192E2408A0073A
:10096000250803110318013E0319B72CA107260817
:1009700003110318013E0319BE2CA2072708031117
:100980000318013E0319C52CA307231CC82CC92C2E
:100990009F2D331CCC2CCD2CD62C3308A800031053
:1009A000280C0138A9002908B300D82C0310B30C77
:1009B000201CDB2CDC2CDD2CB3170130A800230D10
:1009C000A30CA20CA10CA00CA80BDF2C0130A800DA
:1009D0002808B2079F2D2308803AFF002708803A95
:1009E0007F02031DFD2C26082202031DFD2C250875
:1009F0002102031DFD2C240820020318002D012DC7
:100A0000592DFF30A800FF30A900FF30AA00FF30A9
:100A1000AB002408AC002508AD002608AE0027086E
:100A2000AF002008AC022108031C210F182D192D3E
:100A3000AD022208031C220F1E2D1F2DAE0223081B
:100A4000031C230F242D252DAF022C08A8072D08E9
:100A500003182D0F2C2D2D2DA9072E0803182E0F4E
:100A6000322D332DAA072F0803182F0AAB072B08A6
:100A7000A3002A08A2002908A1002808A0008030AD
:100A8000A8002808B006B309B30A3308031D492D8E
:100A90004A2D672D0130A007003003180130A1074F
:100AA000003003180130A207003003180130A307FB
:100AB000672D2408A0022508031C250FA102260883
:100AC000031C260FA2022708031C270FA3022308DA
:100AD000220421042004031D6E2D6F2D9B2D33084D
:100AE000031D732D742D9B2D0030A3000030A20038
:100AF0000030A1000030A000192E0130A800031022
:100B0000A00DA10DA20DA30DA80B7F2DB31F892D44
:100B10008A2D8B2D2014331C8E2D8F2D922D031496
:100B2000B30D942D0310B30D32080319982D992D90
:100B30009B2D0130B202A21F9E2D9F2D7D2DB10154
:100B4000B31FA32DA42DB22D33087F390319A92D6E
:100B5000AA2DAD2DB101B10AB22D201CB02DB12DA1
:100B6000B22DAA2D31080319B62DB72DEB2D01306A
:100B7000A007003003180130A1070030031801302E
:100B8000A207003003180130A307231CC82DC92D6C
:100B9000EB2D2008A8002108A9002208AA0023089C
:100BA000AB000130AC002B0DAB0CAA0CA90CA80CAF
:100BB000AC0BD32D2B08A3002A08A2002908A10002
:100BC0002808A000320A0319E62DE72DEB2D01308D
:100BD000A8002808B207320A0319EF2DF02DF52DD1
:100BE0003208031DF42DF52D032E0030A300003034
:100BF000A2000030A1000030A0003208031D012E29
:100C0000022E032EB001321C062E072E092EA2172B
:100C10000D2E7F30A8002808A2053208A800031076
:100C2000280CA9002908A300B01F172E182E192E72
:100C3000A3170800831203134F088039D00050080F
:100C4000D9004F08D0005007D1005108E000CE1F56
:100C50002A2E2B2E2C2E601460080319302E312ED4
:100C6000412E600A031D352E362E3E2E0030CF0059
:100C70000030CE000030CD000030CC00CE17CF01C8
:100C8000492E0030CF000030CE000030CD000030C3
:100C9000CC004B088039D0005008D9064B08D00052
:100CA0005007D1005108E100CA1F572E582E592E67
:100CB0006114610803195D2E5E2E6E2E610A031DFC
:100CC000622E632E6B2E0030CB000030CA00003045
:100CD000C9000030C800CA17CB01762E0030CB0007
:100CE0000030CA000030C9000030C8004B084A0478
:100CF00049044804031D7D2E7E2E972E0030CF0020
:100D00000030CE000030CD000030CC008030CE046A
:100D10007F30CF045908D0005008CF044F08CB00D3
:100D20004E08CA004D08C9004C08C800F62F6008DC
:100D3000031D9B2E9C2EA52E0030CB000030CA0038
:100D40000030C9000030C800F62F6008D000D10183
:100D50005108D30061085002D200031CD30352088B
:100D60007F3EDA0053080318013E003EDB004F08C7
:100D7000D8004E08D7004D08D6004C08D5000030EA
:100D8000CF000030CE000030CD000030CC0000306D
:100D9000DF000030DE000030DD000030DC00E1016B
:100DA0001B2F61080319D52ED62EF62E0130D00048
:100DB0000310D50DD60DD70DD80DD00BD82E013080
:100DC000D0000310CC0DCD0DCE0DCF0DD00BE12EEC
:100DD000DF1FEB2EEC2EED2E4C140130D000031053
:100DE000DC0DDD0DDE0DDF0DD00BEF2E4B085802B4
:100DF000031D042F4A085702031D042F49085602F9
:100E0000031D042F48085502031C072F082F172F16
:100E10005F174808D5024908031C490FD6024A0843
:100E2000031C4A0FD7024B08031C4B0FD80201309A
:100E3000D0005008E1071A306102031C202F212F37
:100E4000D12E58085704560455040319282F292F6A
:100E5000482F5C14482F0130D0000310CC0DCD0D6D
:100E6000CE0DCF0DD00B2D2FDF1F372F382F392F61
:100E70004C140130D0000310DC0DDD0DDE0DDF0D54
:100E8000D00B3B2FFF30DA070318DB0AFF30DB07FC
:100E9000CE1F4B2F4C2F2B2FE101DF1F502F512F37
:100EA0006D2FFF305C05D000FF305D05D100FF30B5
:100EB0005E05D2007F305F05D30053085204510411
:100EC00050040319642F652F682FE101E10A6D2F8B
:100ED0004C1C6B2F6C2F6D2F652F61080319712F20
:100EE000722FA32F0130CC07003003180130CD073B
:100EF000003003180130CE07003003180130CF074F
:100F00004F1C832F842FA32F4C08D0004D08D100F5
:100F10004E08D2004F08D3000130D400530DD30C3B
:100F2000D20CD10CD00CD40B8E2F5308CF0052080A
:100F3000CE005108CD005008CC000130DA0703186C
:100F4000DB0A0030DB075B08803AFF0080307F025D
:100F5000031DAC2FFF305A02031CAF2FB02FBE2F42
:100F6000FF3083120313DA000030DB000030CF00C3
:100F70000030CE000030CD000030CC0083120313CF
:100F80005B08803AFF0080307F02031DC92F0130CB
:100F90005A020318CC2FCD2FDA2F83120313DA0154
:100FA000DB010030CF000030CE000030CD0000303B
:100FB000CC00D901831203135A08D0005008E00076
:100FC000601CE32FE42FE62FCE17EA2F7F30D000EE
:100FD0005008CE056008D0000310500CD100510815
:100FE000CF005908D0005008CF048E2E08006400AE
:100FF0008001840A0406031900340406F82F013422
:10100000FF1B0A2883137F1883170008840A03191B
:10101000FF0A080008308A000408840A82070034A6
:10102000013400340A34003464340034E8340334C6
:1010300010342734203453343134203420342034D5
:101040002034533432342034203420342034533488
:1010500033342034003420342034003456342034E7
:0C10600000342534643400342E34003495
:1010720083120313BC002230B9003908AC003C08CB
:10108200BA00BB013A08AD003B08AE003D300A127F
:101092008A15F2230A128A153D3083120313A00027
:1010A2000030A1000A128A157D200A128A15080052
:1010B200803083120313B7063B08A3003A08A2004C
:1010C2003908A1003808A0003708A7003608A60092
:1010D2003508A5003408A4000A128A1192230A12C4
:1010E2008A15831203132308B7002208B6002108C9
:1010F200B5002008B400080094282108FF00200849
:1011020084000A128A1500200A128A150A128A1508
:1011120005210A128A15013083120313A00703184E
:10112200A10A0030A107831203132108FF0020083F
:1011320084000A128A1500200A128A15003A031D39
:10114200A328A4287E28080083120313A600A20164
:10115200A3017508A000A1012008A4002108A50090
:10116200261CB428B528BB282408A2070318A30A02
:101172002508A30701300310A40DA50DFF3E031D92
:10118200BC280310A60C2608031DC828C928B128AC
:101192002308F6002208F5000800F600FF3083124B
:1011A200031385008030F500750885050711871443
:1011B2000710C730F500DD28F50BDC28E028E12810
:1011C20083120313071480300506031DE928EA2859
:1011D200F5280710C730F500EE28F50BED28F128A9
:1011E200F22883120313071476088500071187106B
:1011F2000714C730F500FD28F50BFC28002901294A
:101202008312031307100800F600FF308312031342
:1012120085008030F50075088505071187140710D1
:10122200C730F5001429F50B132917291829831241
:101232000313071480300506031D202921292C29B8
:101242000710C730F5002529F50B2429282929295B
:1012520083120313071476088500071587100714F5
:10126200C730F5003429F50B332937293829831281
:101272000313071008008312031327082804031915
:10128200432944297329AB01AB0A522901300310C7
:10129200A70DA80DFF3E031D48290130F600760870
:1012A200AB07A81F55295629472928082A02031DDA
:1012B2005C2927082902031C5F296029662927085F
:1012C200A9022808031CAA03AA0201300310A80CD1
:1012D200A70CFF3E031D67290130AB02031D7229D3
:1012E200732956292A08A8002908A7000800831292
:1012F2000313A501A60120082104031981298229CB
:10130200B929A401A40A902901300310A00DA10D4E
:10131200FF3E031D86290130F5007508A407A11FB1
:1013220093299429852901300310A50DA60DFF3EAE
:10133200031D952921082302031DA1292008220249
:10134200031CA429A529AC292008A2022108031CF8
:10135200A303A302251401300310A10CA00CFF3E2D
:10136200031DAD290130A402031DB829B92994290E
:101372002608A1002508A0000800831203130C1FF1
:10138200C329C429F4290130F1007108F70777084D
:10139200F100F201F11BF203711CD029D129DD29E0
:1013A20008300A168A11AC270A128A15831203130F
:1013B2001E08F1007108EB007708F100F201F11B41
:1013C200F2037118E529E629F22909300A168A1171
:1013D200AC270A128A15831203131E08F100710842
:1013E200EA009F140C138C1EF729F8290F2A1A08F9
:1013F200F1007108F8002B307806031D012A022A39
:10140200072A0130F1007108EC070F2A2D30780607
:10141200031D0C2A0D2A0F2A0130EC0274088A00DF
:10142200730E8300FE0E7E0E090003108312031357
:10143200220D230DA4002408F6007608031D222A9B
:10144200232A2C2A0030A3000030A2000030A10081
:101452000030A000912A2008A4002108A50022083B
:10146200A6002308A7001F300310A70CA60CA50C8A
:10147200A40CFF3E031D352A2408A8002808F50005
:10148200A217FF30A005FF30A105FF30A2050030F2
:10149200A3059630F602F61F4F2A502A6A2A7608CA
:1014A200803A973E0318562A572A582A232A01308F
:1014B2000310A30CA20CA10CA00CFF3E031D592A81
:1014C2000130A4002408F607031D682A692A582A55
:1014D200812A20307602031C6F2A702A7C2A232A52
:1014E2000130A4000310A00DA10DA20DA30DA40BA9
:1014F200732A0130F6027608031D802A812A712A96
:1015020075080319852A862A912AA009A109A20928
:10151200A309A00A0319A10A0319A20A0319A30A1B
:1015220008000030831203132005A80000302105B3
:10153200A90080302205AA007F302305AB002B08CA
:101542002A0429042804031DA72AA82AB02A003045
:10155200A3000030A2000030A1000030A000003043
:101562002405A80000302505A90080302605AA0020
:101572007F302705AB002B082A0429042804031D09
:10158200C32AC42ACC2A0030A7000030A6000030AB
:10159200A5000030A400A31FCF2AD02AF42A0030CD
:1015A200A8000030A9000030AA008030AB0020085B
:1015B200A8022108031C210FDF2AE02AA90222081F
:1015C200031C220FE52AE62AAA022308031C230F82
:1015D200EB2AEC2AAB022B08A3002A08A200290856
:1015E200A1002808A000A71FF72AF82A1C2B003008
:1015F200A8000030A9000030AA008030AB00240807
:10160200A8022508031C250F072B082BA902260870
:10161200031C260F0D2B0E2BAA022708031C270FD3
:10162200132B142BAB022B08A7002A08A6002908AB
:10163200A5002808A4008030A3068030A70627084A
:101642002302031D2E2B26082202031D2E2B250802
:101652002102031D2E2B240820020318312B322BCA
:10166200342B0310352B0314080083120313A80034
:10167200280803193D2B3E2B522BA31F412B422B33
:10168200522B2009AA002109AB002209AC00230930
:10169200AD00AA0A0319AB0A0319AC0A0319AD0A71
:1016A2005A2B2308AD002208AC002108AB00200809
:1016B200AA002308220421042004031D612B622BAB
:1016C2006B2B0030A3000030A2000030A1000030DC
:1016D200A000F12B9630A4002408A9007D2B013034
:1016E200A4002408A90701300310AD0CAC0CAB0C0C
:1016F200AA0CFF3E031D752BFE302D05031D822B08
:10170200832B702B9F2B0130A4002408A9070130E2
:10171200AA07003003180130AB070030031801306C
:10172200AC07003003180130AD0701300310AD0CD7
:10173200AC0CAB0CAA0CFF3E031D972BFF302D0502
:10174200031DA42BA52B842BB12B0130A902013040
:10175200A4000310AA0DAB0DAC0DAD0DA40BAA2B6A
:10176200AC1BB42BB52BBB2B023029020318BA2BAE
:10177200BB2BA62B2918BE2BBF2BC72BFF30AA05CC
:10178200FF30AB057F30AC05FF30AD050310A90C6F
:101792002908A400A501A601A70118300310A40D71
:1017A200A50DA60DA70DFF3E031DCF2B2408AA04ED
:1017B2002508AB042608AC042708AD042808031941
:1017C200E32BE42BE92BA31FE72BE82BE92BAD1727
:1017D2002D08A3002C08A2002B08A1002A08A000B3
:1017E200080083120313B7002D30AF002F08B20098
:1017F200C52C253038060319FF2B002C0C2C380879
:10180200AF00370884002F08831380000130AF0037
:101812002F08B707C52CB3010130AC07FF302C07E6
:1018220084000A128A150A200A128A15B800AF002B
:10183200B0013008003A03191F2CC52C2F08003ABA
:101842000319D72C643A03192A2C0D3A03192A2CAE
:10185200C52C3208840083130008B500840A0008EE
:10186200B6000230AF002F08B207B61F392C3A2C4F
:10187200432C0330AF002F08B304B509B609B50AEB
:101882000319B60AB801B80A3808AF002F07013E9B
:1018920084000A128A150A200A128A15B0000A1256
:1018A2008A150A200A128A15B10031083602031D70
:1018B2005C2C3008350203185F2C602C612C6B2CD9
:1018C2000130AF002F08B80705303806031D6A2C17
:1018D2006B2C452C330803390319702C712C7C2C8A
:1018E2002D30AF00370884002F08831380000130A9
:1018F200AF002F08B7073808AF002F08B400BC2C80
:101902000A30A7000030A8003408AF002F07013EBC
:1019120084000A128A150A200A128A15A0000A12E5
:101922008A150A200A128A15A1003608A300350872
:10193200A2000A128A1578210A128A158312031349
:101942002108AA002008A9000A128A153C210A12BD
:101952008A15831203132708303EB0003008B800FE
:101962003808AF00370884002F0883138000013045
:10197200AF002F08B707FF30AF002F08B407340AB3
:10198200031DC42CC52C812C0130AC07FF302C0761
:1019920084000A128A150A200A128A15AF002F083B
:1019A200B8003808031DD62CD72CFA2B3708840030
:1019B200831380010800831203134B08A3004A0813
:1019C200A2004908A1004808A0000A128A1516229E
:1019D2000A128A15831203132008CD004D08E9006C
:1019E2006908CD00CE01CF01D0015008A3004F08F5
:1019F200A2004E08A1004D08A00001300A128A156B
:101A020036230A128A15831203132308B700220809
:101A1200B6002108B5002008B4004B08BB004A08F4
:101A2200BA004908B9004808B8000A128A155920B4
:101A32000A128A1583120313370883160313AF00A1
:101A420083120313360883160313AE0083120313A3
:101A5200350883160313AD0083120313340883166B
:101A62000313AC00423083120313B100C830B0003C
:101A72000030AF000030AE00831603132F0883122C
:101A82000313B500831603132E0883120313B40045
:101A9200831603132D0883120313B3008316031353
:101AA2002C0883120313B2000A128A1131200A127F
:101AB2008A1583120313310883160313AF008312AE
:101AC2000313300883160313AE00831203132F0887
:101AD20083160313AD00831203132E088316031318
:101AE200AC002F0883120313A300831603132E08DE
:101AF20083120313A200831603132D088312031308
:101B0200A100831603132C0883120313A0000A12E8
:101B12008A1516220A128A15831203132008CD0091
:101B22004D08E8004C080319972D982DBA2D690825
:101B3200CD004D08E7006808CD00CE01CF01D001ED
:101B42005008A3004F08A2004E08A1004D08A000B3
:101B520000300A128A1536230A128A1583120313D9
:101B62002308E5002208E4002108E3002008E2003F
:101B7200E92D6908CD004D08E6006808CD00CE01C8
:101B8200CF01D0015008A3004F08A2004E08A100C7
:101B92004D08A00000300A128A1536230A128A154F
:101BA20083120313230883160313B3008312031350
:101BB200220883160313B20083120313210883162B
:101BC2000313B10083120313200883160313B0001A
:101BD20008000A168A11C6270A128A150B308312C8
:101BE2000313A0008030A1000A128A157D200A1278
:101BF2008A15433083120313CB007F30CA000030B2
:101C0200C9000030C8004030B100A030B000003040
:101C1200AF000030AE006B0883160313B800B901A1
:101C2200BA01BB013B0883120313A30083160313FB
:101C32003A0883120313A20083160313390883128E
:101C42000313A10083160313380883120313A000A1
:101C520000300A128A1536230A128A1583120313D8
:101C62002308B5002208B4002108B3002008B200FE
:101C72000A128A1131200A128A15831203133108BB
:101C8200CF003008CE002F08CD002E08CC000A125B
:101C92008A111A260A128A15831203134B08831615
:101CA2000313B700831203134A0883160313B60003
:101CB20083120313490883160313B5008312031317
:101CC200480883160313B400433083120313CB0076
:101CD2007F30CA000030C9000030C8004030B10077
:101CE200A030B0000030AF000030AE006A088316AA
:101CF2000313B800B901BA01BB013B0883120313F5
:101D0200A300831603133A0883120313A200831657
:101D12000313390883120313A1008316031338082F
:101D220083120313A00000300A128A1536230A1206
:101D32008A15831203132308B5002208B400210870
:101D4200B3002008B2000A128A1131200A128A1541
:101D5200831203133108CF003008CE002F08CD00C4
:101D62002E08CC000A128A111A260A128A15831228
:101D720003134B0883160313AB00831203134A08A1
:101D820083160313AA00831203134908831603134D
:101D9200A90083120313480883160313A800370807
:101DA20083120313CB008316031336088312031323
:101DB200CA0083160313350883120313C90083165E
:101DC2000313340883120313C800CC010A128A15C4
:101DD200DC240A128A15831603132B0883120313B9
:101DE200CB00831603132A0883120313CA00831637
:101DF2000313290883120313C90083160313280847
:101E020083120313C800CC01CC0A0A128A15DC24FF
:101E12000A128A15C0300A128A15CE200A128A15B1
:101E22008312031367080A128A1539200A128A15C7
:101E3200253083120313A0008030A1000A128A15F4
:101E42007D200A128A15831203136508A300640811
:101E5200A2006308A1006208A0004130A700203060
:101E6200A6000030A5000030A4000A128A159222B2
:101E72000A128A1503183E2F3F2F452F00300A12EF
:101E82008A1539200A128A15831203136508A300E2
:101E92006408A2006308A1006208A0000A128A1561
:101EA20016220A128A158312031320080A128A15AF
:101EB20039200A128A151F3083120313A0008030C2
:101EC200A1000A128A157D200A128A1583120313B1
:101ED20066080A128A1539200A128A1525308312D9
:101EE2000313A0008030A1000A128A157D200A1275
:101EF2008A1583160313330883120313A300831670
:101F02000313320883120313A2008316031331084A
:101F120083120313A10083160313300883120313E1
:101F2200A0004130A7002030A6000030A5000030FC
:101F3200A4000A128A1592220A128A150318A22FE5
:101F4200A32FA92F00300A128A1539200A128A15E6
:101F520083160313330883120313A3008316031398
:101F6200320883120313A20083160313310883126B
:101F72000313A10083160313300883120313A00076
:101F82000A128A1516220A128A15831203132008CE
:101F92000A128A1539200A128A151F308312031376
:101FA200A0008030A1000A128A157D200A128A152B
:101FB200831203136C080A128A1539200A128A1531
:101FC2001C3083120313A0008030A1000A128A156C
:101FD2007D200A128A15831203136A080A168A11CF
:101FE2008C270A128A15831203136B080A168A11A8
:0E1FF2008C270A128A15FA2D0A128A110C2861
:102EF6000B17831603130C170800831203131F17EF
:102F06009F131F149F14831603139F131F129F12E0
:102F16000800F50083160313981C922F932F8D2F0C
:102F260075088312031399000800831603138C1681
:102F360018121811831603178715193083160313F1
:102F460099008312031398171816831603139816FD
:102F56000800F00008307006031DB22FB32FB92FFA
:102F6600831203131F119F111F129F16093070063B
:102F7600031DBE2FBF2FC52F831203131F159F11CD
:102F86001F129F16080083160313850180308700E1
:102F96000A168A1180270A168A118B170A168A11B1
:102FA6007B270A168A110A168A11E1270A168A1140
:102FB6000A168A1198270A168A11080038300A124A
:102FC6008A15CE200A168A110E300A128A15CE20CC
:102FD6000A168A1101300A128A15CE200A168A119B
:102FE60006300A128A15CE200A168A1180300A1275
:0A2FF6008A15CE200A168A11080081
:04400E00D4E0FFFFFC
:00000001FF
