:020000040000FA
:060000000A128A110C280F
:10000800FE00030EF1000A08F2000A128A111628EF
:100018000A128A110F28F401F501F60183010A1268
:100028008A11E328831203130C1F1B281C2822287B
:100038001E08F0007008F4009F140C138C1D25286E
:1000480026287C281412141B2A282B282F28941FB2
:100058002E282F2836281308F0007008F6001413ED
:100068009413141683160313941A3B283C28592812
:1000780014193F2840285928831203131308F00045
:100088007008F6008C11141683160313141C4D28DF
:100098004E284828831203131308F0007008F5004F
:1000A8005330F000F00B56287928941A5C285D2804
:1000B8007928141D602861287928831203131308EE
:1000C800F0007008F60083160313141074088312E6
:1000D8000313930014165330F000F00B71288316A5
:1000E80003131418782879287328831203138C11A2
:1000F80072088A00710E8300FE0E7E0E0900FF3022
:100108008316031788008901831603138601FF30BD
:1001180085000A128A11D7200A128A110A128A1136
:10012800EC200A128A1100300A128A11BE200A1223
:100138008A1150300A128A11A4200A128A11080062
:10014800F3007308831603139300363083120313E6
:1001580094008030831603139400013091008715B2
:1001680007168B170B17831203138C1183160313AF
:100178008C150800F3007308031DC328C428CA2877
:10018800831203131F119F111F129F12033073064E
:10019800031DCF28D028D628831203131F159F15B7
:1001A8001F129F120800831203131F179F131F1497
:1001B8009F14831603139F131F129F1208000A121D
:1001C8008A1183200A128A11E8280A128A110C2837
:0A01D8000B17831603130C17080021
:04400E00D4E0FFFFFC
:00000001FF
