:020000040000FA
:060000000A128A110C280F
:10000800FE00030EF1000A08F2000A128A111628EF
:100018000A128A110F28F601F701F80183010A1262
:100028008A117928831203138C1D1B281C28722817
:100038001412141B202821282528941F2428252839
:100048002C281308F0007008F800141394131416E1
:1000580083160313941A312832284F281419352887
:1000680036284F28831203131308F0007008F8008D
:100078008C11141683160313141C432844283E2895
:10008800831203131308F0007008F7005330F000D0
:10009800F00B4C286F28941A522853286F28141DE7
:1000A800562857286F28831203131308F000700886
:1000B800F8008316031314107608831203139300B1
:1000C80014165330F000F00B672883160313141826
:1000D8006E286F286928831203138C1172088A000E
:1000E800710E8300FE0E7E0E09000A128A11DD20B1
:1000F8000A128A117608831203138600881F85283E
:10010800862899280D30F500FB30F400F40B8A2876
:10011800F50B8A288F2883120313881B94289528A7
:1001280099280130F4007408F607081F9C289D28B8
:10013800AE280D30F500FB30F400F40BA128F50BC8
:10014800A128A62883120313081BAB28AC28AE28C5
:100158000130F6027608031DB228B328B7280F30FD
:10016800F4007408F60010307602031CBC28BD2881
:100178007E28F601F60A7E280A128A110C28F30056
:100188007308831603139300363083120313940005
:1001980080308316031394000130910087150716E9
:1001A8008B170B17831203138C11831603138C15EB
:1001B8000800FF308316031788008901831603138C
:1001C8008601FF308800FF30850070300A128A11DE
:0801D800C3200A128A1108007D
:04400E00D4E0FFFFFC
:00000001FF
