:020000040000FA
:100000000A128A11F32FFF1B0D2883137F18831701
:100010000008840A0319FF0A080000308A00040857
:10002000840A82070034013400340A340034643412
:100030000034E8340334103427342034533431345A
:1000400020342034203420345334323420342034CB
:1000500020342034533433342034003425342E34C7
:0C0060003334643400342534643400343C
:10077A0064008001840A0406031900340406BE2BAF
:10078A000A128A11E1230A128A1183160313111419
:10079A0008000A128A11E1230A128A118316031326
:1007AA00111508000A128A11E1230A128A11700827
:1007BA008312031393000800831603131419E62BFC
:1007CA00E72BE12B11081F39031DEC2BED2BE12B35
:1007DA000800F100F0013A3071020318F52BF62BEC
:1007EA00FE2B30307102031CFB2BFC2BFE2BF0017D
:1007FA00F00A700C0800F300F201731C052C062C99
:10080A000A2C7008F1007108F2070310F00D0310AA
:10081A00F30C7308031D122C132C022C7208080007
:10082A008316031386018801003083120313B40070
:10083A000130B3008630B200A030B1000A128A112A
:10084A000F250A128A110A128A112E240A128A11F3
:10085A00080038300A128A11A1240A128A110E30AD
:10086A000A128A11A1240A128A1101300A128A1163
:10087A00A1240A128A1106300A128A11A1240A1224
:10088A008A1180300A128A11A1240A128A110800D8
:10089A00622C7308FF00720884000A128A1103206E
:1008AA000A128A110A128A11D8240A128A110130EC
:1008BA00F2070318F30A0030F307730883120313CD
:1008CA00FF00720884000A128A1103200A128A1190
:1008DA00003A031D712C722C4E2C08000A128A1140
:1008EA00E1230A128A118316031391150A128A1137
:1008FA00E1230A128A11831203131308F200F30187
:10090A007208F4007308F5000A128A11E1230A1228
:10091A008A1170037104031D932C942C982C83164E
:10092A00031391129B2C8316031391161116750843
:10093A00F1007408F0000800F100FF30831203137D
:10094A0086008030F0007008860588120817881320
:10095A00C730F000B02CF00BAF2CB32CB42C8312A0
:10096A000313881780300606031DBC2CBD2CC82C27
:10097A008813C730F000C12CF00BC02CC42CC52C36
:10098A0083120313881771088600881208138817C0
:10099A00C730F000D02CF00BCF2CD32CD42C8312E0
:1009AA00031388130800F100FF3083120313860033
:1009BA008030F00070088605881208178813C7303F
:1009CA00F000E72CF00BE62CEA2CEB2C8312031335
:1009DA00881780300606031DF32CF42CFF2C88138D
:1009EA00C730F000F82CF00BF72CFB2CFC2C8312F0
:1009FA000313881771088600881608138817C730EA
:100A0A00F000072DF00B062D0A2D0B2D8312031370
:100A1A0088130800283083120313940083160313E3
:100A2A009101831203133108B5003208B600330866
:100A3A00B7003408B80002300310B50DB60DB70D73
:100A4A00B80DFF3E031D212D3808F3003708F200C8
:100A5A003608F1003508F0000030F7003D30F600A6
:100A6A000930F5000030F4000A128A112A260A1207
:100A7A008A117008FF3E83160313930094018715A9
:100A8A00071608007808790403194C2D4D2D7C2D82
:100A9A00FD01FD0A5B2D01300310F80DF90DFF3E33
:100AAA00031D512D0130FC007C08FD07F91F5E2D46
:100ABA005F2D502D79087B02031D652D78087A0277
:100ACA00031C682D692D6F2D7808FA027908031C1A
:100ADA00FB03FB0201300310F90CF80CFF3E031D67
:100AEA00702D0130FD02031D7B2D7C2D5F2D7B08AF
:100AFA00F9007A08F8000800F501F6017008710497
:100B0A000319882D892DC02DF701F70A972D013079
:100B1A000310F00DF10DFF3E031D8D2D0130F40081
:100B2A007408F707F11F9A2D9B2D8C2D01300310A5
:100B3A00F50DF60DFF3E031D9C2D71087302031D72
:100B4A00A82D70087202031CAB2DAC2DB32D7008B2
:100B5A00F2027108031CF303F30275140130031047
:100B6A00F10CF00CFF3E031DB42D0130F702031DFA
:100B7A00BF2DC02D9B2D7608F1007508F0000800E6
:100B8A000A128A1115240A128A11C0300A128A110D
:100B9A00A1240A128A110B30F2008030F3000A12E3
:100BAA008A114D240A128A110A128A11C5230A12BD
:100BBA008A115130F0000030F1000A128A11D7234D
:100BCA000A128A110030F000F1000A128A11732405
:100BDA000A128A11700883120313BE003E08A0008D
:100BEA000A128A11CE230A128A110D3083120313B4
:100BFA00BF00FB30BE00BE0B002EBF0B002E8030A4
:100C0A000A128A11A1240A128A111C3083120313B0
:100C1A00BE003E08B1002008BF00C0013F08B20074
:100C2A004008B30021300A128A1190260A128A114A
:100C3A002130F2000030F3000A128A114D240A1200
:100C4A008A11D92D0A128A1100280030FC000030BE
:100C5A00FB000030FA000030F900730872047104D6
:100C6A0070040319392E3A2E872EFD01FD0A4A2EE9
:100C7A000130F8000310F00DF10DF20DF30DF80B31
:100C8A003F2E0130F8007808FD07F31F4D2E4E2E37
:100C9A003D2E0130F8000310F90DFA0DFB0DFC0D85
:100CAA00F80B502E73087702031D652E7208760220
:100CBA00031D652E71087502031D652E70087402E6
:100CCA00031C682E692E782E7008F4027108031C22
:100CDA00710FF5027208031C720FF6027308031CE7
:100CEA00730FF702791401300310F30CF20CF10CB4
:100CFA00F00CFF3E031D792E0130FD02031D862EE6
:100D0A00872E4E2E7C08F3007B08F2007A08F10049
:100D1A007908F000080083120313BB003230B400D4
:100D2A003408B700DC2F25303D0603199D2E9E2E70
:100D3A00AA2E3D08B4003B088400340883138000BF
:100D4A000130B4003408BB07DC2FB8013108840035
:100D5A000A128A110D200A128A112E3A031DB62E82
:100D6A00B72EEE2E0130B4003408B107BC01DD2ED7
:100D7A00831203133C08B4003408F0000A300A1244
:100D8A008A1100240A128A1183120313B500350846
:100D9A00BC00310884000A128A110D200A128A1135
:100DAA00D03EB4003408BC070130B4003408B1079F
:100DBA00310884000A128A110D200A128A110A12B5
:100DCA008A11EE230A128A110318EC2EED2EBD2E7B
:100DDA00EF2EBC01013083120313B107FF30310734
:100DEA0084000A128A110D200A128A11BD00B40069
:100DFA00B5013508003A0319032FDC2F3408003AED
:100E0A000319EE2F643A03190E2F0D3A03190E2F08
:100E1A00DC2F3708840083130008B900840A00080D
:100E2A00BA000230B4003408B707BA1F1D2F1E2FAC
:100E3A00272F0330B4003408B804B909BA09B90A2B
:100E4A000319BA0A3C08031D2B2F2C2F362F3908F9
:100E5A003A04031D312F322F362F0130B4003408E3
:100E6A00BC07BD01BD0A3D08B4003407013E840039
:100E7A000A128A110D200A128A11B5000A128A1161
:100E8A000D200A128A11B60036083A02031D4F2FA6
:100E9A00350839020318522F532F542F5E2F013071
:100EAA00B4003408BD0705303D06031D5D2F5E2FD3
:100EBA00382F3C08B400B501B41BB5033508803A95
:100ECA00803C031D6A2F34083D0203186D2F6E2FD4
:100EDA006F2F892F831203133C08B400B501B41B8A
:100EEA00B5033508803AB60080303602031D7F2FDD
:100EFA003D0834020318822F832F892F831203138C
:100F0A003D08B4003408BC008312031338080339BF
:100F1A000319902F912FD32F2D30B4003B08840052
:100F2A003408831380000130B4003408BB07D32F80
:100F3A000A30F8000030F9003C08B4003407013EDA
:100F4A0084000A128A110D200A128A11F0000A126C
:100F5A008A110D200A128A11F1003A08F3003908A1
:100F6A00F2000A128A1181250A128A117108FB00FD
:100F7A007008FA000A128A1147250A128A1178089B
:100F8A00303E83120313B5003508BD003D08B40096
:100F9A003B088400340883138000982FFF30B40084
:100FAA003408BC073C0A031DDB2FDC2F9D2F0130C0
:100FBA00B107FF30310784000A128A110D200A1284
:100FCA008A11B4003408BD003D08031DED2FEE2F31
:100FDA00982E3B0884008313800108008313203075
:100FEA00840031300A128A11BD230A128A11830140
:060FFA000A128A11C52D48
:04400E00D4E0FFFFFC
:00000001FF
