:020000040000FA
:100000000A128A11F32FFF1B0D2883137F18831701
:100010000008840A0319FF0A080000308A00040857
:10002000840A82070034013400340A340034643412
:100030000034E83403341034273425342E34333478
:10004000643420342034203425342E343334643462
:10005000253425342034203425342E34333464348C
:1000600000342034533431342034203420342034CC
:100070005334323420342034203420345334333455
:0A00800020340034253464340034C9
:1004C20064008001840A0406031900340406622AC7
:1004D2000A128A1185220A128A1183160313111431
:1004E20008000A128A1185220A128A11831603133E
:1004F200111508000A128A1185220A128A1170083F
:1005020083120313930008008316031314198A2A13
:100512008B2A852A11081F39031D902A912A852AC0
:100522000800F100F0013A3071020318992A9A2A60
:10053200A22A30307102031C9F2AA02AA22AF001AB
:10054200F00A700C0800F300F201731CA92AAA2A0F
:10055200AE2A7008F1007108F2070310F00D0310C3
:10056200F30C7308031DB62AB72AA62A72080800DC
:100572008316031386018801003083120313A3003C
:100582000130A2008630A100A030A0000A128A1118
:10059200D8230A128A110A128A11D2220A128A1145
:1005A200080038300A128A116A230A128A110E30A0
:1005B2000A128A116A230A128A1101300A128A1156
:1005C2006A230A128A1106300A128A116A230A124F
:1005D2008A1180300A128A116A230A128A110800CB
:1005E200F401F501701CF62AF72AFD2A7208F407B5
:1005F2000318F50A7308F50701300310F20DF30D25
:10060200FF3E031DFE2A01300310F10CF00CFF3EE9
:10061200031D052B70087104031D102B112BF32AE7
:100622007508F1007408F00008002B2B7308FF0016
:10063200720884000A128A1103200A128A110A120D
:100642008A11A1230A128A110130F2070318F30A50
:100652000030F307730883120313FF00720884004B
:100662000A128A1103200A128A11003A031D3A2B38
:100672003B2B172B08000A128A1185220A128A11B3
:100682008316031391150A128A1185220A128A11FE
:10069200831203131308F200F3017208F4007308C3
:1006A200F5000A128A1185220A128A117003710456
:1006B200031D5C2B5D2B612B831603139112642B9C
:1006C20083160313911611167508F1007408F000D1
:1006D2000800F100FF308312031386008030F0001F
:1006E20070088605881208178813C730F000792B26
:1006F200F00B782B7C2B7D2B831203138817803011
:100702000606031D852B862B912B8813C730F0001C
:100712008A2BF00B892B8D2B8E2B831203138817B8
:1007220071088600881208138817C730F000992BC9
:10073200F00B982B9C2B9D2B83120313881308001C
:10074200F100FF308312031386008030F00070083E
:100752008605881208178813C730F000B02BF00BFB
:10076200AF2BB32BB42B83120313881780300606EA
:10077200031DBC2BBD2BC82B8813C730F000C12B27
:10078200F00BC02BC42BC52B8312031388177108DF
:100792008600881608138817C730F000D02BF00B9C
:1007A200CF2BD32BD42B83120313881308002830AA
:1007B200831203139400831603139101831203130C
:1007C2002008A4002108A5002208A6002308A700EB
:1007D20002300310A40DA50DA60DA70DFF3E031DAB
:1007E200EA2B2708F3002608F2002508F100240866
:1007F200F0000030F7003D30F6000930F50000301F
:10080200F4000A128A118E240A128A117008FF3E1D
:1008120083160313930094018715071608007808BE
:1008220079040319152C162C452CFD01FD0A242CE4
:1008320001300310F80DF90DFF3E031D1A2C013093
:10084200FC007C08FD07F91F272C282C192C79089D
:100852007B02031D2E2C78087A02031C312C322CC9
:10086200382C7808FA027908031CFB03FB020130DA
:100872000310F90CF80CFF3E031D392C0130FD0268
:10088200031D442C452C282C7B08F9007A08F8001B
:100892000800F501F601700871040319512C522C5D
:1008A200892CF701F70A602C01300310F00DF10DCD
:1008B200FF3E031D562C0130F4007408F707F11FA8
:1008C200632C642C552C01300310F50DF60DFF3E00
:1008D200031D652C71087302031D712C70087202CE
:1008E200031C742C752C7C2C7008F2027108031CFA
:1008F200F303F302751401300310F10CF00CFF3E08
:10090200031D7D2C0130F702031D882C892C642CD9
:100912007608F1007508F00008000030FC00003095
:10092200FB000030FA000030F90073087204710411
:10093200700403199D2C9E2CEB2CFD01FD0AAE2C9C
:100942000130F8000310F00DF10DF20DF30DF80B6C
:10095200A32C0130F8007808FD07F31FB12CB22C4C
:10096200A12C0130F8000310F90DFA0DFB0DFC0D5E
:10097200F80BB42C73087702031DC92C7208760297
:10098200031DC92C71087502031DC92C700874025D
:10099200031CCC2CCD2CDC2C7008F4027108031C37
:1009A200710FF5027208031C720FF6027308031C22
:1009B200730FF702791401300310F30CF20CF10CEF
:1009C200F00CFF3E031DDD2C0130FD02031DEA2C5D
:1009D200EB2CB22C7C08F3007B08F2007A08F100C1
:1009E2007908F000080083120313A101F71FFA2C03
:1009F200FB2C022DF609F709F60A0319F70AA101E1
:100A0200A10AF91F052D062D0F2DF809F909F80A7B
:100A12000319F90A0130FA007A08A106A201A3011A
:100A2200760877040319162D172D4E2DA001A00A62
:100A3200252D01300310F60DF70DFF3E031D1B2D72
:100A42000130FA007A08A007F71F282D292D1A2D48
:100A520001300310A20DA30DFF3E031D2A2D7708BE
:100A62007902031D362D76087802031C392D3A2DA2
:100A7200412D7608F8027708031CF903F9022214C3
:100A820001300310F70CF60CFF3E031D422D01301E
:100A9200A002031D4D2D4E2D292D21080319522D83
:100AA200532D582DA209A309A20A0319A30A230848
:100AB200F7002208F60008000A128A11B9220A1267
:100AC2008A110A128A1169220A128A115130F0001F
:100AD2000030F1000A128A117B220A128A110030B8
:100AE200F000F1000A128A113C230A128A117008DE
:100AF20083120313B4003408BF000A128A1172224F
:100B02000A128A110D3083120313B500FB30B400B0
:100B1200B40B892DB50B892D0A128A1169220A128A
:100B22008A116130F0000030F1000A128A117B2232
:100B32000A128A110030F000F1000A128A113C23D5
:100B42000A128A11700883120313B4003408BE001B
:100B52000A128A1172220A128A110D3083120313A9
:100B6200B500FB30B400B40BB42DB50BB42D0A1292
:100B72008A1169220A128A117130F0000030F100E4
:100B82000A128A117B220A128A110030F000F10047
:100B92000A128A113C230A128A1170088312031363
:100BA200B4003408BB000A128A1172220A128A1196
:100BB2000D3083120313B500FB30B400B40BDF2DEC
:100BC200B50BDF2DDC30F6000030F7008312031383
:100BD2003E08B400B5013408F0003508F100643075
:100BE200F2000030F3000A128A11F1220A128A116D
:100BF2007108F9007008F8000A128A11F4240A1226
:100C02008A11760883120313B6003608BD00C0307D
:100C12000A128A116A230A128A111F30F2008030E6
:100C2200F3000A128A1116230A128A1180300A125C
:100C32008A116A230A128A110B3083120313B40039
:100C42003408A0003F08B500B6013508A1003608F7
:100C5200A2003D08B700B8013708A3003808A40075
:100C62003B08B900BA013908A5003A08A60040308D
:100C72000A128A114B260A128A114030F200003001
:100C8200F3000A128A1116230A128A11622D0A121D
:100C92008A11002883120313B1002130A70027080C
:100CA200AA00DC2F253033060319582E592E652E43
:100CB2003308A7003108840027088313800001301D
:100CC200A7002708B107DC2FAB01200884000A1215
:100CD2008A110D200A128A112E3A031D712E722ECC
:100CE200A92E0130A7002708A007B201982E83126F
:100CF20003133208A7002708F0000A300A128A11EB
:100D0200A4220A128A1183120313A8002808B2002F
:100D1200200884000A128A110D200A128A11D03E7C
:100D2200A7002708B2070130A7002708A00720085C
:100D320084000A128A110D200A128A110A128A11DB
:100D420092220A128A110318A72EA82E782EE82EB4
:100D5200B201E82E32080319AF2EB02ED02E32087F
:100D6200803A7F3E0318B62EB72ED02E3208A70047
:100D7200A8012708AD002808AE00D02E2C08840058
:100D820083130008A700310884002708800001307F
:100D9200A7002708AC070130A7002708B1070130D8
:100DA200AD020030031CAE03AE022D0A031DDD2E80
:100DB2002E0A031DDD2EDE2EBF2EDC2F3330A700C0
:100DC2002708AC000130AD000030AE00AB2E013080
:100DD20083120313A007FF30200784000A128A112E
:100DE2000D200A128A11B300A700A8012808003AB0
:100DF2000319FC2EDF2E2708003A0319EE2F643A5E
:100E02000319072F0D3A0319072FDF2E2A08840032
:100E120083130008AF00840A0008B0000230A70064
:100E22002708AA07B01F162F172F202F0330A7005D
:100E32002708AB04AF09B009AF0A0319B00A320898
:100E4200031D242F252F2F2F2F083004031D2A2F97
:100E52002B2F2F2F0130A7002708B207B301B30AA7
:100E620005303306031D362F372F382F5E2F3308F8
:100E7200A7002707013E84000A128A110D200A12D8
:100E82008A11A8000A128A110D200A128A11A900D9
:100E920029083002031D4F2F28082F020318522F52
:100EA200532F542F5E2F0130A7002708B3070530B8
:100EB2003306031D5D2F5E2F382F3208A700A801CD
:100EC200A71BA8032808803A803C031D6A2F270825
:100ED200330203186D2F6E2F6F2F892F8312031386
:100EE2003208A700A801A71BA8032808803AA90076
:100EF20080302902031D7F2F330827020318822F17
:100F0200832F892F831203133308A7002708B20007
:100F1200831203132B0803390319902F912FD32F18
:100F22002D30A70031088400270883138000013088
:100F3200A7002708B107D32F0A30F8000030F900C4
:100F42003208A7002707013E84000A128A110D20E9
:100F52000A128A11F0000A128A110D200A128A114D
:100F6200F1003008F3002F08F2000A128A114A2415
:100F72000A128A117108FB007008FA000A128A111B
:100F820010240A128A117808303E83120313A80033
:100F92002808B3003308A700310884002708831308
:100FA2008000982FFF30A7002708B207320A031DDE
:100FB200DB2FDC2F9D2F0130A007FF30200784009C
:100FC2000A128A110D200A128A11A7002708B300FB
:100FD2003308031DED2FEE2F532E310884008313A7
:100FE2008001080083133B30840050300A128A11BA
:0E0FF20061220A128A1183010A128A115D2DF2
:04400E00D4E0FFFFFC
:00000001FF
