:020000040000FA
:100000000A128A11F32FFF1B0D2883137F18831701
:100010000008840A0319FF0A080000308A00040857
:10002000840A82070034013400340A340034643412
:100030000034E8340334103427342034533431345A
:1000400020342034203420345334323420342034CB
:1000500020342034533433342034003425342E34C7
:100060003334643420342034203425342E34333473
:100070006434253425342034203400342534643469
:0200800000344A
:1005260064008001840A0406031900340406942A30
:100536000A128A11B7220A128A118316031311149A
:1005460008000A128A11B7220A128A1183160313A7
:10055600111508000A128A11B7220A128A117008A8
:100566008312031393000800831603131419BC2A7D
:10057600BD2AB72A11081F39031DC22AC32AB72A62
:100586000800F100F0013A3071020318CB2ACC2A98
:10059600D42A30307102031CD12AD22AD42AF0017F
:1005A600F00A700C0800F300F201731CDB2ADC2A47
:1005B600E02A7008F1007108F2070310F00D03102D
:1005C600F30C7308031DE82AE92AD82A72080800E2
:1005D6008316031386018801003083120313A300D8
:1005E6000130A2008630A100A030A0000A128A11B4
:1005F6000A240A128A110A128A1104230A128A117B
:10060600080038300A128A119C230A128A110E3009
:100616000A128A119C230A128A1101300A128A11BF
:100626009C230A128A1106300A128A119C230A1286
:100636008A1180300A128A119C230A128A11080034
:10064600F401F501701C282B292B2F2B7208F407B7
:100656000318F50A7308F50701300310F20DF30DC0
:10066600FF3E031D302B01300310F10CF00CFF3E52
:10067600031D372B70087104031D422B432B252BBA
:100686007508F1007408F00008005D2B7308FF0080
:10069600720884000A128A1103200A128A110A12A9
:1006A6008A11D3230A128A110130F2070318F30ABA
:1006B6000030F307730883120313FF0072088400E7
:1006C6000A128A1103200A128A11003A031D6C2BA2
:1006D6006D2B492B08000A128A11B7220A128A11B9
:1006E6008316031391150A128A11B7220A128A1168
:1006F600831203131308F200F3017208F40073085F
:10070600F5000A128A11B7220A128A1170037104BF
:10071600031D8E2B8F2B932B831603139112962B6F
:1007260083160313911611167508F1007408F0006C
:100736000800F100FF308312031386008030F000BA
:1007460070088605881208178813C730F000AB2B8F
:10075600F00BAA2BAE2BAF2B831203138817803016
:100766000606031DB72BB82BC32B8813C730F00022
:10077600BC2BF00BBB2BBF2BC02B8312031388178C
:1007860071088600881208138817C730F000CB2B33
:10079600F00BCA2BCE2BCF2B831203138813080022
:1007A600F100FF308312031386008030F0007008DA
:1007B6008605881208178813C730F000E22BF00B65
:1007C600E12BE52BE62B83120313881780300606F0
:1007D600031DEE2BEF2BFA2B8813C730F000F32BFB
:1007E600F00BF22BF62BF72B8312031388177108E5
:1007F6008600881608138817C730F000022CF00B05
:10080600012C052C062C83120313881308002830AC
:1008160083120313940083160313910183120313A7
:100826002008A4002108A5002208A6002308A70086
:1008360002300310A40DA50DA60DA70DFF3E031D46
:100846001C2C2708F3002608F2002508F1002408CE
:10085600F0000030F7003D30F6000930F5000030BA
:10086600F4000A128A11C0240A128A117008FF3E87
:10087600831603139300940187150716080078085A
:1008860079040319472C482C772CFD01FD0A562CB8
:1008960001300310F80DF90DFF3E031D4C2C0130FD
:1008A600FC007C08FD07F91F592C5A2C4B2C7908A3
:1008B6007B02031D602C78087A02031C632C642CCF
:1008C6006A2C7808FA027908031CFB03FB02013044
:1008D6000310F90CF80CFF3E031D6B2C0130FD02D2
:1008E600031D762C772C5A2C7B08F9007A08F80021
:1008F6000800F501F601700871040319832C842C95
:10090600BB2CF701F70A922C01300310F00DF10D04
:10091600FF3E031D882C0130F4007408F707F11F11
:10092600952C962C872C01300310F50DF60DFF3E05
:10093600031D972C71087302031DA32C7008720205
:10094600031CA62CA72CAE2C7008F2027108031CFF
:10095600F303F302751401300310F10CF00CFF3EA3
:10096600031DAF2C0130F702031DBA2CBB2C962CAD
:100976007608F1007508F00008000030FC00003031
:10098600FB000030FA000030F900730872047104AD
:1009960070040319CF2CD02C1D2DFD01FD0AE02C6F
:1009A6000130F8000310F00DF10DF20DF30DF80B08
:1009B600D52C0130F8007808FD07F31FE32CE42C52
:1009C600D32C0130F8000310F90DFA0DFB0DFC0DC8
:1009D600F80BE62C73087702031DFB2C72087602CF
:1009E600031DFB2C71087502031DFB2C7008740295
:1009F600031CFE2CFF2C0E2D7008F4027108031C3C
:100A0600710FF5027208031C720FF6027308031CBD
:100A1600730FF702791401300310F30CF20CF10C8A
:100A2600F00CFF3E031D0F2D0130FD02031D1C2D92
:100A36001D2DE42C7C08F3007B08F2007A08F100F7
:100A46007908F000080083120313A101F71F2C2D6B
:100A56002D2D342DF609F709F60A0319F70AA10117
:100A6600A10AF91F372D382D412DF809F909F80A81
:100A76000319F90A0130FA007A08A106A201A301B6
:100A8600760877040319482D492D802DA001A00A68
:100A9600572D01300310F60DF70DFF3E031D4D2DAA
:100AA6000130FA007A08A007F71F5A2D5B2D4C2D4E
:100AB60001300310A20DA30DFF3E031D5C2D770828
:100AC6007902031D682D76087802031C6B2D6C2DA8
:100AD600732D7608F8027708031CF903F90222142D
:100AE60001300310F70CF60CFF3E031D742D013088
:100AF600A002031D7F2D802D5B2D21080319842D57
:100B0600852D8A2DA209A309A20A0319A30A23087F
:100B1600F7002208F60008000A128A11EB220A12D0
:100B26008A11C0300A128A119C230A128A110B30CC
:100B3600F2008030F3000A128A1148230A128A1141
:100B46000A128A119B220A128A115130F0000030D3
:100B5600F1000A128A11AD220A128A110030F00041
:100B6600F1000A128A116E230A128A117008831282
:100B76000313B2003208B9000A128A11A4220A121B
:100B86008A110D3083120313B300FB30B200B20B8F
:100B9600CA2DB30BCA2D0A128A119B220A128A1178
:100BA6006130F0000030F1000A128A11AD220A12FB
:100BB6008A110030F000F1000A128A116E230A121F
:100BC6008A11700883120313B2003208B8000A12A1
:100BD6008A11A4220A128A110D3083120313B3005C
:100BE600FB30B200B20BF52DB30BF52DDC30F60061
:100BF6000030F700831203133808B200B30132083D
:100C0600F0003308F1006430F2000030F3000A12FD
:100C16008A1123230A128A117108F9007008F80054
:100C26000A128A1126250A128A11760883120313DC
:100C3600B4003408B70080300A128A119C230A12C5
:100C46008A111C3083120313B2003208A00039083F
:100C5600B300B4013308A1003408A2003708B50078
:100C6600B6013508A3003608A4003A300A128A11E4
:100C76004B260A128A113A30F2000030F3000A12AB
:100C86008A1148230A128A11A32D0A128A110028F2
:100C960083120313AF002130A5002508A800DC2F1E
:100CA600253031060319582E592E652E3108A50018
:100CB6002F0884002508831380000130A50025082D
:100CC600AF07DC2FA901200884000A128A110D2023
:100CD6000A128A112E3A031D712E722EA92E013088
:100CE600A5002508A007B001982E8312031330082B
:100CF600A5002508F0000A300A128A11D6220A1227
:100D06008A1183120313A6002608B0002008840067
:100D16000A128A110D200A128A11D03EA500250852
:100D2600B0070130A5002508A007200884000A1294
:100D36008A110D200A128A110A128A11C4220A1275
:100D46008A110318A72EA82E782EE82EB001E82EB9
:100D560030080319AF2EB02ED02E3008803A7F3ED1
:100D66000318B62EB72ED02E3008A500A6012508EA
:100D7600AB002608AC00D02E2A0884008313000896
:100D8600A5002F088400250880000130A50025084D
:100D9600AA070130A5002508AF070130AB020030D5
:100DA600031CAC03AC022B0A031DDD2E2C0A031D0B
:100DB600DD2EDE2EBF2EDC2F3130A5002508AA0041
:100DC6000130AB000030AC00AB2E013083120313B0
:100DD600A007FF30200784000A128A110D200A128C
:100DE6008A11B100A500A6012608003A0319FC2EB7
:100DF600DF2E2508003A0319EE2F643A0319072F50
:100E06000D3A0319072FDF2E2808840083130008E4
:100E1600AD00840A0008AE000230A5002508A80728
:100E2600AE1F162F172F202F0330A5002508A90463
:100E3600AD09AE09AD0A0319AE0A3008031D242F09
:100E4600252F2F2F2D082E04031D2A2F2B2F2F2F52
:100E56000130A5002508B007B101B10A05303106F9
:100E6600031D362F372F382F5E2F3108A500250793
:100E7600013E84000A128A110D200A128A11A60068
:100E86000A128A110D200A128A11A70027082E02BB
:100E9600031D4F2F26082D020318522F532F542FB0
:100EA6005E2F0130A5002508B10705303106031D68
:100EB6005D2F5E2F382F3008A500A601A51BA603BF
:100EC6002608803A803C031D6A2F25083102031844
:100ED6006D2F6E2F6F2F892F831203133008A500F5
:100EE600A601A51BA6032608803AA7008030270284
:100EF600031D7F2F310825020318822F832F892F88
:100F0600831203133108A5002508B00083120313CA
:100F1600290803390319902F912FD32F2D30A500BF
:100F26002F0884002508831380000130A5002508BA
:100F3600AF07D32F0A30F8000030F9003008A500BB
:100F46002507013E84000A128A110D200A128A1111
:100F5600F0000A128A110D200A128A11F1002E08D9
:100F6600F3002D08F2000A128A117C240A128A1153
:100F76007108FB007008FA000A128A1142240A124C
:100F86008A117808303E83120313A6002608B100A2
:100F96003108A5002F088400250883138000982FA8
:100FA600FF30A5002508B007300A031DDB2FDC2F14
:100FB6009D2F0130A007FF30200784000A128A11F6
:100FC6000D200A128A11A5002508B1003108031D5B
:100FD600ED2FEE2F532E2F08840083138001080077
:100FE6008313373084004A300A128A1193220A1278
:0A0FF6008A1183010A128A118F2D5F
:04400E00D4E0FFFFFC
:00000001FF
