:020000040000FA
:060000000A128A110C280F
:10000800FE00030EF1000A08F2000A128A115B28AA
:100018000A128A110F28F501F60183010A128A11C2
:100028008728552883120313861B1B281C2837286A
:100038007603031D2028212837280D30F400FB30D3
:10004800F300F30B2528F40B25282A288312031321
:10005800861F2F2830283728050885000130F3002F
:1000680073088507F601061B3A283B2855287603AE
:10007800031D3F28402855280D30F400FB30F300BD
:10008800F30B4428F40B4428492883120313061F52
:100098004E284F2855280508850001308502F601AD
:1000A80015287603031959285A28162808008B1E84
:1000B8005E285F286F2883120313091C64286528AB
:1000C8006828091089148B1209186B286C286F2866
:1000D800091489108B120B1C722873287628F601D4
:1000E800F60A0B10831203130C1F7B287C28802828
:1000F8001E08F0007008F50072088A00710E83006F
:10010800FE0E7E0E09000A128A1194200A128A1124
:100118000A128A1115200A128A110A128A110C2849
:10012800831203138501890187018316031385014F
:0A013800FF308600870189010800EE
:04400E00D4E0FFFFFC
:00000001FF
