:020000040000FA
:060000000A128A110C280F
:10000800FE00030EF3000A08F4000A128A111D28E4
:100018000A128A110F280A128A1193200A128A11C9
:10002800FC00F801F901FA01FB0183010A128A11A7
:100038007428831203130C1F222823285328013005
:10004800F1007108F9077908F100F201F11BF203D8
:10005800711C2F2830283C2808300A128A115A208F
:100068000A128A11831203131E08F1007108FB009B
:100078007908F100F201F11BF203711844284528B0
:10008800512809300A128A115A200A128A11831239
:1000980003131E08F1007108FA009F140C1374086A
:1000A8008A00730E8300FE0E7E0E0900F0000830F1
:1000B8007006031D602861286728831203131F1127
:1000C8009F111F129F1609307006031D6C286D289A
:1000D8007328831203131F159F111F129F16080000
:1000E80000300A128A1186200A128A118230F7001B
:1000F800DD30F600F60B7E28F70B7E2883280A12DF
:100108008A110C288316031314108312031313087F
:100118000800F500750883120313930008000134E2
:04400E00D4E0FFFFFC
:00000001FF
